:020000040800F2
:10000000D005002045010008131900081F12000840
:100010000F190008490E0008992B00080000000085
:10002000000000000000000000000000FD1D0008AE
:100030005110000800000000791C0008E91E0008AB
:100040005F0100085F0100085F0100085F01000810
:100050005F0100085F0100085F0100085F01000800
:100060005F0100085F0100085F0100085F010008F0
:100070005F0100085F0100085F0100085F010008E0
:100080005F0100085F0100085F0100085F010008D0
:100090005F0100085F0100085F0100085F010008C0
:1000A0005F0100085F0100085F0100085F010008B0
:1000B0005F0100088D2100085F0100085F01000852
:1000C0005F0100085F0100085F0100085F01000890
:1000D0005F010008E52700085F0100085F010008D4
:1000E0005F0100085F0100085F0100085F01000870
:1000F0005F0100085F0100085F0100085F01000860
:100100005F0100085F0100085F0100085F0100084F
:100110005F0100085F0100085F0100085F0100083F
:100120005F0100085F0100085F0100085F0100082F
:10013000DFF80CD000F034FC00480047F54C000814
:10014000D00500200648804706480047FEE7FEE746
:10015000FEE7FEE7FEE7FEE7FEE7FEE7FEE7FEE777
:10016000ED1E0008310100082DE9F0410024061BB6
:10017000254671F1000605DA01240027D0EB0700BF
:1001800067EB0101161E73F1000605DA0027D2EBBA
:100190000702012567EB030300F004FB86460E46C9
:1001A00017469C46AC4204D00025D0EB050E65EB0B
:1001B000010624B10020D2EB000760EB030C70466F
:1001C00031463A466346BDE8F081D2B201E000F81C
:1001D000012B491EFBD270470022F6E710B51346EB
:1001E0000A4604461946FFF7F0FF204610BD30B519
:1001F00004460020034600E05B1C934203D2E05C0F
:10020000CD5C401BF8D030BDF0B480EA0102D40FC1
:100210004200B2EB410F02D20246084611464A00A4
:1002200042D0C30DDDB2C1F3C752AD1A202D35DA6D
:10023000C1F3160141F4000204B15242C5F1200697
:1002400002FA06F12A411044B3EBD05F23D0C4B1C7
:10025000012DA0EBC35009DCF0BC4FF0004202EAD4
:10026000C352DBB200F5000000F0F7BA400000F125
:10027000807000EBC350A0F1807040EAD17049005B
:1002800009E0490841EAC071A0EBC35000F5000045
:10029000400800EBC350F0BC00F0D6BA6142012226
:1002A00002EB4101001BF6E7F0BC704781F0004112
:1002B000AAE780F00040A7E780EA010210B502F04B
:1002C0000043400022D04A001FD0010E01EB126112
:1002D000C0F35600C2F3560240F4000042F400029C
:1002E000A0FB022000047F39140400D0401C50EA17
:1002F000124001D44000491EC2B20C0604EBD010DB
:10030000401C4008802A02D003E0002010BD20F0ED
:100310000100002900DA0020184310BD30B480EA43
:10032000010202F0004530F0004221F0004013D0FD
:1003300090B1C30DD40DC2F31601C0F31600E41A38
:1003400041F4000140F400027D34914201D3641C69
:1003500000E04900002C02DA30BC002070474FF466
:1003600000000023914201D3891A034340084FEA59
:100370004101F7D151B1914202D14FF0004105E066
:1003800002D24FF0010101E06FF0010103EBC45014
:10039000284430BC00F058BA2DE9FE4F804681EA6F
:1003A0000300C00F0C46009021F0004123F00045EF
:1003B000B8EB0200A94105D24046214690461C46B2
:1003C0000B46024623F00040104347D0270DC7F3E9
:1003D0000A00C3F30A510290401A019040286BDAD8
:1003E000C3F3130040F4801B0098924620B1002311
:1003F000D2EB030A63EB0B0B01985946C0F14002A4
:10040000504600F000FA06460D4650465946019AFD
:1004100000F008FA10EB08006141002487EA11524D
:1004200084EAE7731A4340D0009A62B3019A012A22
:100430004FEA075215DC001B61EB02014FF000424E
:1004400002EA0752CDE90042001C41F58011324614
:100450002B4600F03FFA03B0BDE8F08F404621463E
:10046000F9E7001B61EB0201001C41F58013001845
:100470005B412018A2F5001747EB030140EAD57055
:10048000B6196D4111E06D084FEA360645EAC075B0
:100490004FEA0752001B61EB0201001C41F580117D
:1004A00049084FEA30000019514132462B4603B04B
:1004B000BDE8F04F00F0FFB9009801224000002392
:1004C000D0EB020263EBE073009821464FEAE07440
:1004D000B8EB000061EB0401E9E783F000435BE760
:1004E00081F0004158E72DE9FE4F81EA030404F052
:1004F000004421F0004100944FF0000B23F0004332
:1005000050EA01045ED052EA03045BD0C3F30A54FC
:10051000C1F30A552C44A4F2F3340194A0FB025415
:10052000C1F3130141F48011C3F3130343F48013A7
:1005300001FB024400FB034E840A970A44EA8154FB
:1005400047EA8357A4FB076802958D0A05FB0785D8
:100550004FEA932C04FB0C542705029D4FEA0658E2
:1005600047EA1637B5EB08056EEB070C870E920EBF
:1005700047EA811742EA8312A7FB0201B6EB0B019F
:1005800064EB00042B0D43EA0C335E1844EB1C5063
:10059000DA465146E7FB0201C5F313044FEA0B3379
:1005A00043EA14534FEA0432019C43EA0603A4F1E0
:1005B0000C040294009CCDE900B400F08BF903B068
:1005C000BDE8F08F00200146F9E72DE9F04D81EA02
:1005D000030404F0004B21F0004514464FF0000ADC
:1005E00023F0004150EA050220D054EA01021DD058
:1005F000C5F30A570246C5F31303C1F31300C1F351
:100600000A5640F4801543F48013A7EB0608101B2C
:10061000D64608F2FD3873EB050002D308F1010855
:1006200001E092185B41B8F1000F03DA00200146A7
:10063000BDE8F08D00204FF48011064684460EE0A0
:10064000171B73EB050705D3121B63EB050306436A
:100650004CEA010C49084FEA300092185B4150EA1D
:100660000107EDD152EA030012D082EA040083EAC6
:100670000501084305D0101BAB4106D2012200231F
:1006800006E000224FF0004302E06FF00102531039
:100690001AEB06004CEB085110EB0A0041EB0B0182
:1006A000BDE8F04D00F007B9C10F80EAE0700844E2
:1006B000CA079623002100F0D0B8962300221146E5
:1006C00000F0CBB800F0004220F00040C10DC0F3B4
:1006D000160040F400007F2901DA002070479629B7
:1006E00003DCC1F19601C84001E096398840002A38
:1006F000F4D04042704720F00040C10DC0F3160016
:1007000040F400007F2901DA00207047962903DCBD
:10071000C1F19601C840704796398840704700F093
:10072000004230F000400AD0C10D01F56071C0F305
:10073000160042EA0151C2084007114370470020E9
:100740000146704701F0004330B421F0004150EA07
:10075000010206D00A0DA2F56072C1F31301002A4E
:1007600002DC30BC00207047440F44EAC104C100E1
:10077000E01830BC00EBC25000F066B8002801DB86
:10078000C0F10040002901DBC1F100418142704706
:10079000002801DBC0F10040002901DBC1F100416C
:1007A000884270472DE9F05F0546002092469B463F
:1007B00088460646814640241BE028464146474677
:1007C000224600F0FFF853465A46C01A914110D312
:1007D00011461846224600F016F82D1A67EB01085C
:1007E0004F4622460120002100F00DF817EB0009CA
:1007F0004E41201EA4F10104DFDC484631462A4662
:100800004346BDE8F09F202A04DB203A00FA02F1BB
:10081000002070479140C2F1200320FA03F31943EE
:1008200090407047202A06DBCB17203A41FA02F0AD
:1008300043EAE07306E041FA02F3D040C2F120023D
:1008400091400843194670470029A8BF7047401CD3
:10085000490008BF20F00100704710B4B0FA80FCD6
:1008600000FA0CF050EA010404BF10BC704749B113
:10087000CCF1200421FA04F411FA0CF118BF012183
:1008800021430843A3EB0C01CB1D4FEA00614FEA63
:10089000102042BF002010BC704700EBC350104432
:1008A0000029A4BF10BC7047401C490008BF20F0BD
:1008B000010010BC704710B5141E73F1000408DA73
:1008C000401C41F1000192185B411A4301D120F014
:1008D000010010BD2DE9F04D92469B4611B1B1FAD1
:1008E00081F202E0B0FA80F220329046FFF78BFFEF
:1008F00004460F4640EA0A0041EA0B0153465A46B5
:10090000084313D0114653EA010019D0C8F1400240
:10091000504600F057F805460E46504659464246A6
:10092000FFF771FF084305D0012004E02046394657
:10093000BDE8F08D0020054346EAE0762C433743BE
:100940000A986305E40AA0EB08000022FD0A44EAC5
:1009500047540A3002D500200146E9E70105101985
:100960006941DDE9084500196941BDE8F04DA2E79C
:1009700070B521F0004303430CD0C1F30A550024A5
:10098000D5EB040564EB0403D617AD1AB34102DBC3
:100990000020014670BD201841EB025170BD0000DF
:1009A000064C074D06E0E06840F0010394E80700BC
:1009B00098471034AC42F6D3FFF7BEFBB87100087D
:1009C000D8710008202A04DB203A21FA02F0002125
:1009D000704721FA02F3D040C2F12002914008434F
:1009E0001946704770B58C1810F8015B15F00703B5
:1009F00001D110F8013B2A1106D110F8012B03E0B8
:100A000010F8016B01F8016B5B1EF9D12B0705D4BF
:100A10000023521E0DD401F8013BFAE710F8013B08
:100A2000CB1A921C03E013F8015B01F8015B521E24
:100A3000F9D5A142D8D3002070BD21B1826842F01F
:100A40000102826003E0826822F001028260704746
:100A500000B591B00121142001F03CF97E20ADF8E1
:100A6000400000208DF8430010A9574800F0F1FA2B
:100A70003F20ADF8400010A9544800F0EAFA0320E6
:100A8000ADF8400010A9524800F0E3FA01214802F5
:100A900001F020F94FF4004001F0F0F800200B9035
:100AA00001208DF830008DF831004FF460200D905A
:100AB00000200E900A208DF83C000BA9454800F05C
:100AC000AFF8072301221146424800F01FF907231F
:100AD000022211463F4800F019F90723032211466C
:100AE0003C4800F013F9072304221146394800F06E
:100AF0000DF9072305220A21364800F007F90723DC
:100B000006220B21334800F001F907231A460C2175
:100B1000304800F0FBF8072308220D212D4800F093
:100B2000F5F80723092208212A4800F0EFF80723E7
:100B30000A220921274800F0E9F80121254800F0A0
:100B40004FF801212348FFF778FF224800F03AF9D7
:100B500000BF204800F059F80028FAD11D4800F0E5
:100B600036F900BF1B4800F046F80028FAD10121F1
:100B7000084601F08FF8184800F0A6F915484C30E7
:100B8000009016480190002002900A200390002057
:100B9000049080200590400006908000079020205F
:100BA00008900002099000200A9069460A4800F067
:100BB00031FA0121084800F07BF901210548FFF7CF
:100BC0003CFF11B000BD00000008014000100140D2
:100BD000000C01400024014008000240B801002040
:100BE00021B1826842F48072826003E0826822F45C
:100BF000807282607047014600208A6802F0040219
:100C00000AB1012000E000207047014600208A68F8
:100C100002F008020AB1012000E000207047000045
:100C200030B502460020002350680F4C20400D795B
:100C30000C6844EA05242043506090680B4C204027
:100C4000D1E902542C434D7944EA45042043906095
:100C5000D06A20F470000C7C641EE4B2234340EAA6
:100C60000350D06230BD0000FFFEF0FFFDF7F1FF42
:100C700008B50D48C08800900B48838842880188D9
:100C80000AA002F059F80848C089009006488389F4
:100C9000428901890EA002F04FF80348428A018A76
:100CA00014A002F049F808BDB801002076616C7507
:100CB000653A2066726F6E74202534642C202534CA
:100CC000642C202534642C202534640A00000000A4
:100CD000202020202020206261636B2020253464A6
:100CE0002C202534642C202534642C202534640ADF
:100CF0000000000020202020202020636F6C6F72F5
:100D0000202534642C202534640A0000F0B5044604
:100D10000D4600200021092D11DDE068A5F10A062D
:100D200006EB4607072606FA07F18843A5F10A06EF
:100D300006EB460603FA06F10843E0600CE0206982
:100D400005EB4507072606FA07F1884305EB45063C
:100D500003FA06F108432061072A0FDA606B561E7A
:100D600006EB86071F2606FA07F18843561E06EB98
:100D7000860605FA06F10843606322E00D2A0FDAC1
:100D8000206BD61F06EB86071F2606FA07F188435D
:100D9000D61F06EB860605FA06F10843206310E02D
:100DA000E06AA2F10D0606EB86071F2606FA07F198
:100DB0008843A2F10D0606EB860605FA06F1084304
:100DC000E062F0BD816841F0080181607047816890
:100DD00041F00401816070471CB500F046FE4020E0
:100DE0008DF8000000208DF8010001208DF8020030
:100DF00000208DF8030082208DF80400684600F082
:100E0000ABFE1CBD08B50121042000F063FF4FF4C8
:100E1000F040ADF8000004208DF803006946084852
:100E200000F017F90121402000F054FF4FF4F0408A
:100E3000ADF800006946034800F00BF908BD00005A
:100E4000001401400018014000BFFEE708B5012171
:100E5000402000F03FFF1C20ADF8000010208DF86E
:100E6000030003208DF802006946104800F0F1F8F5
:100E70000220ADF8000028208DF8030069460B48D9
:100E800000F0E7F802F09EFC05F060FA05F05EFA6B
:100E900005F05CFA03F07CFA05F0A4FA05F0CCFA50
:100EA00005F07EF802F082FC08BD00000018014049
:100EB00021B1026842F00102026004E002684FF6CC
:100EC000FE731A400260704701684FF6FE721140CF
:100ED00001600021016041608160C1604B4988422E
:100EE00008D14A490839496841F00F01474A083A90
:100EF00051608AE045491431884208D14349083994
:100F0000496841F0F001414A083A51607DE03F49AB
:100F10002831884208D13D490839496841F4706157
:100F20003A4A083A516070E038493C31884208D169
:100F300036490839496841F47041344A083A5160E9
:100F400063E032495031884208D130490839496854
:100F500041F470212D4A083A516056E02B49643122
:100F6000884208D129490839496841F47001274A63
:100F7000083A516049E025497831884208D123492F
:100F80000839496841F07061204A083A51603CE0F4
:100F90001F49884206D1011F096841F00F01021F55
:100FA000116032E01A491431884208D11849091FEA
:100FB000096841F0F001164A121F116025E014493A
:100FC0002831884208D11249091F096841F470612B
:100FD0000F4A121F116018E00D493C31884208D1B8
:100FE0000B49091F096841F47041094A121F116039
:100FF0000BE007495031884207D10549091F0968AC
:1010000041F47021024A121F11607047080002402B
:101010000804024010B50022026847F6F0739A43B4
:101020000C6A8B6823430C6923434C6923438C6906
:101030002343CC6923434C6A23438C6A23431A43DA
:101040000260CB6843600B6883604B68C36010BD6F
:1010500070472DE9F04102460025002600200023BC
:101060000024002791F803C00CF00F0591F803C08D
:101070000CF0100CBCF1000F03D091F802C04CEA48
:10108000050591F800C0BCF1000F31D014680020B4
:101090002BE04FF0010C0CFA00F3B1F800C00CEAA1
:1010A00003069E4220D183004FF00F0C0CFA03F789
:1010B000BC4305FA03FC4CEA040491F803C0BCF1FC
:1010C000280F06D14FF0010C0CFA00FCC2F814C036
:1010D0000AE091F803C0BCF1480F05D14FF0010CB4
:1010E0000CFA00FCC2F810C0401C0828D1D31460D0
:1010F000B1F800C0BCF1FF0F34DD546800202EE0D1
:1011000000F1080C4FF0010808FA0CF3B1F800C028
:101110000CEA03069E4221D183004FF00F0C0CFA1B
:1011200003F7BC4305FA03FC4CEA040491F803C03E
:10113000BCF1280F05D100F1080C08FA0CF8C2F830
:10114000148091F803C0BCF1480F07D100F1080CDE
:101150004FF0010808FA0CF8C2F81080401C08286B
:10116000CED35460BDE8F081F0B50A4600230024D8
:101170000021002500F00046B6F1004F02D11D4EBF
:10118000F16901E01B4E7168C0F3034583B200F4BE
:101190004016B6F5401F08D121F07061154E7668F3
:1011A00026F07066134F7E6012E000F48016B6F5EC
:1011B000801F06D1032606FA05F4A14341F07061B1
:1011C00006E0460D360103FA06F6B14341F07061C0
:1011D00022B1460D360103FA06F6314300F000460F
:1011E000B6F1004F02D1034EF16101E0014E716092
:1011F000F0BD0000000001400246002093680B4053
:101200000BB1012000E0002070470146C86880B2A1
:1012100070474161704701617047C160704700BF0E
:10122000FEE770B502460024002500230020958AC1
:10123000138B1B0445EA030626F07F4404EA0106EB
:101240008E4201D1012000E0002070BD21B1028852
:1012500042F00102028004E002884FF6FE731A4059
:101260000280704721B1028842F48072028004E05B
:1012700002884FF6FF631A400280704721B102884E
:1012800042F40072028004E002884FF6FF531A40D5
:10129000028070470CB502460020002301930093A2
:1012A00000920B0F019321F07F41019B1BB1009B2A
:1012B0001433009303E0090C009B18330093009B48
:1012C0001B680B400BB1012000E000200CBD0000AA
:1012D0002DE9F04385B004460D460026B1460427AB
:1012E000DFF8CC80A6884FF6C0700640684600F054
:1012F00001FDDDF808802F48B8FBF0F01FFA80F9F7
:1013000046EA0906A68020884FF6FE710840208034
:1013100000262949286888420CD828684000B8FB74
:10132000F0F087B2042F00DA04273E4309F10100F0
:10133000208427E0E8884BF6FF71884206D12868B0
:1013400000EB4000B8FBF0F087B209E0286800EB42
:10135000C00101EB0010B8FBF0F087B247F4804702
:10136000C7F30B0008B947F0010747F400400643F4
:101370004FF4967009FB00F04FF47A7190FBF1F096
:10138000401C2084A683208840F00100208026880D
:101390004FF6F5300640A888698908430643268041
:1013A000A88929890843208105B0BDE8F0830000A1
:1013B00000127A0040420F00A08601000146088A10
:1013C000C0B2704712B141F0010102E04FF6FE7366
:1013D00019400182704701827047000010B500205B
:1013E0000E4908600E48006820F470400C490860FF
:1013F0000846006840F44050086000200949C1F8E0
:10140000AC0100F011F801200449086000F00CF86C
:1014100000200449C1F8A80110BD0000A8812142A4
:10142000040C01400080214210B5022002F050FA65
:1014300010BD000008B50121082000F04BFC4FF45E
:101440004060ADF8000010208DF8030003208DF8F7
:10145000020069460148FFF7FCFD08BD000C014091
:1014600010B500200E4908600E48006820F4704056
:101470000C4908600846006840F4405008600120AC
:101480000949C1F8AC01FFF7CFFF0120044908600A
:10149000FFF7CAFF00200449C1F8A80110BD0000F1
:1014A000A8812142040C01400080214270B505460C
:1014B00000241648006820F470401449086008466B
:1014C000006840F400400860002614E00020104945
:1014D0000860FFF7A9FF01200E49C1F8A8016006C6
:1014E000040E0B487C38006808B1601CC4B2FFF7DA
:1014F0009BFF701CC6B2082EE8DB15B9FFF7B0FFE2
:1015000001E0FFF76BFF204670BD0000040C0140B6
:10151000A88121420080214270B50446124800682B
:1015200020F47040104908600846006840F44050BC
:10153000086000200D490860002512E0E0090B4911
:10154000091D08606006040E01200949C1F8A801C0
:10155000FFF76AFF002005490860FFF765FF681C78
:10156000C5B2082DEADB70BD040C0140A881214200
:101570000080214210B50E48006820F470400C49EC
:1015800008600846006840F440500860012009499E
:1015900008600949C1F8A801FFF746FF0020054986
:1015A0000860FFF741FF00200349C1F8A80110BD02
:1015B000040C0140AC8121420080214210B50E484C
:1015C000006820F470400C4908600846006840F448
:1015D000405008600020094908600949C1F8AC0181
:1015E000FFF722FF0120054908600549C1F8AC0159
:1015F000FFF71AFF10BD0000040C0140A881214232
:101600000080214210B500241448006820F4704086
:10161000124908600846006840F400400860012054
:101620000F490860FFF700FF01200E49C1F8A8012B
:10163000FFF7FAFE07E0601CC4B2FA2C03DDFFF7E7
:10164000BDFF012010BD0648803800680028F2D197
:101650000349091F086000BFF4E70000040C0140C3
:10166000AC8121420080214238B50121084600F0BA
:1016700031FB0121042000F02DFB4FF40040ADF8B8
:10168000000010208DF8030003208DF80200694649
:101690002248FFF7DEFC01212148FFF765FD00200D
:1016A00020490860FFF7C6FE80216B2000F0DDF8BE
:1016B000642002F0EFF800216B2000F0D6F8032040
:1016C00000F091F8002000F086F8322000F0B0F829
:1016D0000021382000F0C9F800216A2000F0C5F888
:1016E0000021232000F0C1F88021372000F0BDF850
:1016F000752000F019F80446682C0BD101216B20ED
:1017000000F0B3F800216C2000F0AFF8322000F0B8
:101710008FF801E0012038BD0020FCE700080140FF
:1017200000023000BC01214270B50446FFF722FFE1
:10173000D020FFF7F1FEFFF765FF2046FFF7ECFE34
:10174000FFF760FFFFF716FFD120FFF7E5FEFFF779
:1017500059FF0020FFF7AAFE0546FFF72FFF284696
:1017600070BD2DE9F04106460F4614461D46FFF7B1
:1017700001FF002141EA4601C8B2FFF7CDFEFFF7A5
:1017800041FF20B1FFF71AFF0120BDE8F081384684
:10179000FFF7C2FEFFF736FFFFF7ECFE012101EB7A
:1017A0004601C8B2FFF7B8FEFFF72CFF0DE0012C91
:1017B00004D10020FFF77AFE287003E00120FFF734
:1017C00075FE2870601EC4B26D1C002CEFD1FFF7AF
:1017D000F5FE0020D9E710B50446E006010E1C20F6
:1017E00000F043F810BD10B50446E006010E1B20C2
:1017F00000F03BF810BD70B504460025BC2C01DBA1
:10180000012510E0622C01DB02250CE02A2C01DB13
:10181000032508E0142C01DB042504E00A2C01DB7D
:10182000052500E0062529461A2000F01EF870BDA7
:1018300070B50446B4F57A7F01DD4FF47A74042C58
:1018400000DA04244FF47A7090FBF4F0401EC5B225
:101850002946192000F009F80546264604EBD67102
:10186000C1F34F00FFF7C7FF70BD70B505460C46CA
:10187000FFF780FED020FFF74FFEFFF7C3FE18B141
:10188000FFF79CFE012070BD2846FFF745FEFFF7DD
:10189000B9FE2046FFF740FEFFF7B4FE18B1FFF790
:1018A0008DFE0120EFE7FFF789FE0020EBE72DE931
:1018B000F04105460E4617469846FFF75BFE0021AD
:1018C00041EA4501C8B2FFF727FEFFF79BFE20B1B2
:1018D000FFF774FE0120BDE8F0813046FFF71CFEE3
:1018E000FFF790FE00240CE018F80400FFF714FE48
:1018F000FFF788FE18B1FFF761FE0120EBE7601CDF
:10190000C4B2BC42F0DBFFF759FE0020E3E700BFA2
:10191000FEE7704708B500214FF0006000F054F872
:101920004FF4E06000F046F825208DF8000000201C
:101930008DF8020001208DF80300684600F002F8DF
:1019400008BD000070B5002100230F22C47804B345
:10195000154C246804F4E064C4F5E064210AC1F184
:101960000403CA40447804FA03F184781440214304
:1019700009010E4C0678A155047804F01F050124D6
:10198000AC4005786D11AD0005F1E025C5F80041CA
:1019900009E0047804F01F050124AC40044D0678EA
:1019A000761145F8264070BD0CED00E000E400E043
:1019B00080E100E002490143024A116070470000E3
:1019C0000000FA050CED00E0024A0A400243024B17
:1019D0001A60704780FFFF1F08ED00E010B5044655
:1019E00001210C48FFF73EFC00BF0B490948FFF7F7
:1019F00018FC0028F9D06006010E00220548FFF708
:101A0000E1FC00BF05490348FFF70BFC0028F9D0B3
:101A100010BD0000005400400100030082000700D8
:101A200010B501210148FFF729FC10BD005400400A
:101A300008B50121082000F04DF90121480500F00A
:101A400039F9C020ADF8000003208DF802001C20F9
:101A50008DF8030069460248FFF7FBFA08BD000055
:101A6000000C014001460120704710B5FFF7E0FF70
:101A700000F002F810BD00001FB50020ADF8040012
:101A80004BF6FF70ADF806004FF48060ADF80A0029
:101A90000001ADF80C000548009069460448FFF7C6
:101AA00017FC01210248FFF7D1FB1FBD400D0300C9
:101AB0000054004070B506460D46144600BF4FF472
:101AC00000311A48FFF7E6FB0028F8D1012117483A
:101AD000FFF7C8FB00BF16491448FFF7A2FB002818
:101AE000F9D07006010E01221048FFF76BFC00BF11
:101AF0000F49491C0D48FFF794FB0028F8D011E06E
:101B00001CB901210948FFF7B9FB09493F310748D2
:101B1000FFF787FB30B10548FFF750FC28706D1CBC
:101B2000601EC4B2002CEBD1012070BD00540040F7
:101B30000100030010B5044621460548FFF74BFCA1
:101B400000BF04490248FFF76CFB0028F9D010BD24
:101B5000005400408400070070B5044600250026AC
:101B6000FFF783FF2078FFF77DFF002833D0207830
:101B7000FFF734FF0020FFF7DDFF1020FFF7DAFF4B
:101B8000FFF74EFF2078FFF729FFFE20FFF7D2FF77
:101B90002079FFF7CFFFFFF743FF2078FFF71EFF05
:101BA0000020FFF7C7FF2120FFF7C4FFFFF738FF32
:101BB00060780001A17840EA8100E1780843C6B26C
:101BC0002078FFF70BFF0120FFF7B4FF3046FFF747
:101BD000B1FFFFF725FF207800F02BF8284670BDF5
:101BE0002DE9F04107460E4614461D460F2E1EDC19
:101BF000B4F5805F1BDAB5F5805F18DA3846FFF779
:101C0000EDFE062101EB8601C8B2FFF793FFE0B2BB
:101C1000FFF790FFC4F30320FFF78CFFE8B2FFF754
:101C200089FFC5F30320FFF785FFFFF7F9FEBDE845
:101C3000F08138B50446002000902046FFF7CEFE24
:101C40000020FFF777FFFFF7EBFE012269462046F1
:101C5000FFF730FF9DF8000020F0100000902046B4
:101C6000FFF7BCFE0020FFF765FF9DF80000FFF7BF
:101C700061FFFFF7D5FE38BD704700000146002028
:101C8000034A506820F44040084350607047000009
:101C90000010024029B1064A52690243044B5A61BE
:101CA00004E0034A52698243014B5A6170470000C5
:101CB0000010024029B1064AD2690243044BDA619E
:101CC00004E0034AD2698243014BDA6170470000A5
:101CD0000010024029B1064A92690243044B9A61FE
:101CE00004E0034A92698243014B9A617047000005
:101CF0000010024030B500210022002400232D4DA9
:101D00006D6805F00C0121B1042905D0082923D103
:101D100005E0294D056022E0274D05601FE0254DB7
:101D20006D6805F47012234D6D6805F4803402254A
:101D300005EB92421CB9214D554305600BE01D4D4A
:101D40006D6805F400351DB11C4D5543056002E07A
:101D5000194D5543056002E0174D056000BF00BFF7
:101D6000144D6D6805F0F0010909154D6B5C0568AF
:101D7000DD4045600F4D6D6805F4E061090A104DC6
:101D80006B5C4568DD4085600A4D6D6805F4605107
:101D9000C90A0B4D6B5C4568DD40C560054D6D683B
:101DA00005F44041890B074D6B5CC568B5FBF3F545
:101DB000056130BD0010024000127A0000093D00AC
:101DC0008101002091010020002008490870084985
:101DD0000870012007490870002003E006490854F4
:101DE000411CC8B20028F9D1704700007A010020D8
:101DF0007B0100207C0100207A000020704710B594
:101E000000F002F810BD00000CB500200190009019
:101E10003348006840F480303149086000BF3048E2
:101E2000006800F4003000900198401C0190009878
:101E300018B90198B0F5A06FF1D12948006800F4F5
:101E4000003010B10120009001E0002000900098C7
:101E5000012843D12348006840F010002149086060
:101E60000846006820F0030008600846006840F05B
:101E7000020008601A4840681949486008464068EE
:101E800048600846406840F4806048600846406802
:101E900020F47C1048600846406840F4E810486030
:101EA0000846006840F08070086000BF0C48006879
:101EB00000F000700028F9D00948406820F00300C5
:101EC000074948600846406840F00200486000BF8B
:101ED0000348406800F00C000828F9D10CBD000050
:101EE00000100240002002407047000010B5134867
:101EF000006840F001001149086008464068104938
:101F000008400E494860084600680E4908400B49E1
:101F100008600846006820F4802008600846406891
:101F200020F4FE0048604FF41F008860FFF767FF51
:101F30004FF000600449086010BD0000001002402E
:101F40000000FFF8FFFFF6FE08ED00E0F0B50C46DC
:101F5000154600220021068C4FF6FE773E4006848F
:101F6000028B018C4FF60C7632407E1C06EA03167B
:101F70002E433243104EB0420ED0104EB0420BD022
:101F8000B0F1804F08D00E4EB04205D00D4EB04299
:101F900002D00D4EB04206D14FF6FD76314044F0EE
:101FA0000106314305E04FF6F576314044F0010675
:101FB000314302830184F0BD002C01400034014014
:101FC0000004004000080040000C0040F0B50C4642
:101FD0001546002200210026078C4FF6EF7C07EA09
:101FE0000C070784028B018C4FF6FF7707EA041673
:101FF00040F6FF473A404FF6FF7707EA03373A4388
:102000004FF6FF7707EA05273A43114FB8420ED043
:10201000104FB8420BD0B0F1804F08D00E4FB842ED
:1020200005D00E4FB84202D00D4FB84206D14FF640
:10203000DF77394046F01007394305E04FF65F7708
:10204000394044F01007394302830184F0BD000099
:10205000002C014000340140000400400008004012
:10206000000C0040F0B50C46154600220021002669
:10207000078C4FF6FF6C07EA0C070784828B018CF4
:102080004FF6FF7707EA04264FF60C773A404FF6F3
:10209000FF7707EA03172F433A43114FB8420ED098
:1020A000104FB8420BD0B0F1804F08D00E4FB8425D
:1020B00005D00E4FB84202D00D4FB84206D14FF6B0
:1020C000FF57394046F48077394305E04FF2FF5718
:1020D000394044F48077394382830184F0BD0000A5
:1020E000002C014000340140000400400008004082
:1020F000000C0040F0B50C461546002200210026D9
:10210000078C4EF6FF7C07EA0C070784828B018C54
:102110004FF6FF7707EA043640F6FF473A404FF69E
:10212000FF7707EA05273A434FF6FF7707EA0337B9
:102130003A43114FB8420ED0104FB8420BD0B0F115
:10214000804F08D00E4FB84205D00E4FB84202D093
:102150000D4FB84206D14DF6FF77394046F480570F
:10216000394305E047F6FF57394044F48057394377
:1021700082830184F0BD0000002C01400034014046
:102180000004004000080040000C004010B504218D
:102190005F4800F070F901282AD104215C4800F062
:1021A00051F95C48007860B9594800F05AF95A4929
:1021B00008600120574908700221554800F0CBF90A
:1021C00016E05648006840B1514800F04AF95249BB
:1021D0000968401A51490968086000204D49087093
:1021E00000214B4800F0B7F90021494800F02DF9D3
:1021F0000821474800F03FF901282AD10821444826
:1022000000F020F94348007860B9414800F02CF90B
:102210004149086001203F49087002213C4800F014
:10222000A7F916E03D48006840B1394800F01CF9B4
:1022300039490968401A3949096808600020354958
:1022400008700021324800F093F90021304800F076
:10225000FCF810212E4800F00EF901282AD1102197
:102260002B4800F0EFF82B48007860B9284800F0C0
:10227000FEF82949086001202649087002212448F7
:1022800000F083F916E02548006840B1204800F0CE
:10229000EEF821490968401A2049096808600020C1
:1022A0001C49087000211A4800F06FF900211848F5
:1022B00000F0CBF80121164800F0DDF8012826D106
:1022C0000121134800F0BEF81448006858B11148C5
:1022D000007820B9002011490968086003E0012056
:1022E0000E490968086000200A49087000214FF073
:1022F000804000F04AF90021054800F046F900212D
:10230000074800F042F90021014800F09EF810BD96
:1023100000040040200000202400002028000020AD
:102320000008004000B587B000203C4908703C49D7
:1023300008603C49086001210220FFF7BBFC4FF612
:10234000FF70ADF814000020ADF81000ADF81600D5
:10235000ADF8120004A9344800F056F90122112109
:10236000314800F01FF90420ADF804000020ADF85A
:1023700006000120ADF808000020ADF80A00ADF815
:102380000C0001A9284800F087F80820ADF80400E7
:102390000020ADF806000120ADF808000020ADF8DF
:1023A0000A00ADF80C0001A91F4800F075F80C20D8
:1023B000ADF804000020ADF806000120ADF80800DB
:1023C0000020ADF80A00ADF80C0001A9164800F095
:1023D00063F84FF4E060FFF7EDFA1D208DF8000080
:1023E00000208DF8010001208DF802008DF8030017
:1023F0006846FFF7A7FA01210B4800F023F80021F7
:10240000094800F013F801221D21074800F09AF84E
:102410000021054800F019F807B000BD2000002099
:1024200024000020280000200004004021B1028880
:1024300042F08002028004E002884FF67F731A4067
:1024400002807047CA430282704721B1028842F07D
:102450000102028004E002884FF6FE731A400280F7
:1024600070470146088F70470146888F70470146C4
:10247000B1F84000704730B5024600200023002428
:10248000158A05EA0103958905EA010413B10CB127
:10249000012000E0002030BD70B505460C46244800
:1024A00085420ED0234885420BD0B5F1804F08D02D
:1024B0002148854205D02148854202D020488542E6
:1024C00000D100E000BF208850B92389A28861882C
:1024D0002846FFF73BFDE188284600F068F825E034
:1024E000208804280AD12389A28861882846FFF71A
:1024F0006DFDE188284600F063F817E02088082881
:102500000AD12389A28861882846FFF7ABFDE188BC
:10251000284600F062F809E02389A28861882846ED
:10252000FFF7E8FDE188284600F060F870BD000084
:10253000002C01400034014000040040000800402D
:10254000000C00401AB183890B43838102E0838928
:102550008B43838170470A460021018C4FF6DF735D
:1025600019404FF6FF7303EA0213194301847047C1
:102570000A460021018C4FF6FF5319404FF6FF73B6
:1025800003EA02231943018470470A460021018CA3
:102590004DF6FF7319404FF6FF7303EA02331943F8
:1025A0000184704701858282704781847047028B65
:1025B0004FF6F3731A400283028B0A43028370477B
:1025C000028B4FF2FF331A400283028B4FF6FF73E8
:1025D00003EA01231A4302837047828B4FF6F37399
:1025E0001A408283828B0A4382837047828B4FF228
:1025F000FF331A408283828B4FF6FF7303EA012375
:102600001A43828370470000002202881D4B9842C3
:102610000ED01D4B98420BD0B0F1804F08D01B4B11
:10262000984205D01A4B984202D01A4B984204D1D6
:102630004FF68F731A404B881A43174B984207D0B6
:10264000164B984204D04FF6FF431A40CB881A43EA
:1026500002808B8883850B8803850A4B98420BD0B8
:10266000094B984208D00E4B984205D00D4B98422A
:1026700002D00D4B984201D10B7A0386012383824D
:1026800070470000002C014000340140000400406D
:1026900000080040000C0040001000400014004002
:1026A0000040014000440140004801402DE9F04154
:1026B0000746002500260DE0384600F03BFA0446A8
:1026C000012C00D01CB94FF6FF70BDE8F081254405
:1026D000701CC6B20A2EEFDB0A20B5FBF0F0F4E75F
:1026E00008B501212020FFF7F5FA0320ADF800001E
:1026F00010208DF8030003208DF8020069460E4873
:10270000FEF7A7FC0C20ADF8000069460A48FEF76A
:10271000A0FC3020ADF8000069460748FEF799FCA0
:10272000C020ADF8000069460348FEF792FCFEF7B2
:1027300053FB03F02DFE08BD0014014000B585B029
:1027400001210520FFF7C6FA01218803FFF7C2FA2D
:102750004FF40070ADF8100018208DF8130003201E
:102760008DF8120004A91C48FEF773FC4FF480603A
:10277000ADF8100004208DF8130004A91648FEF7E8
:1027800068FC4FF4E13000900020ADF80400ADF893
:102790000600ADF80800ADF80C000C20ADF80A00FA
:1027A00069460E4800F016F9012240F225510B4807
:1027B00000F0EAF80121094800F0A3F84021074899
:1027C00000F096F8002003E005490854411CC8B207
:1027D0000028F9D105B000BD0008014000380140D3
:1027E0007A00002010B540F225513C4800F0A2F8D4
:1027F000002872D03A4800783A490978884229D1AD
:10280000394838490978405C3649097888420ED100
:1028100036480078401CC0B234490870314908700D
:10282000324800783049314A1278885412E02D49F4
:10283000087803E02C490854411CC8B22A49294AA7
:102840001278895C8142F5DC274826490978405C8A
:1028500024490870214800F029F92349204A1278B8
:1028600088541F480078401C1D49087008460078AD
:10287000801E1D49085C0D282FD119480078401E84
:10288000085C0A2829D11648017818480078C01C2D
:10289000814205D112480078801E114908701CE061
:1028A0000F480078801E1049104A127888540C484E
:1028B0000078801E0D490870084601780A480B4AC6
:1028C0001278815406480078401E05490870084671
:1028D00000780549024A1278885410BD003801403A
:1028E0007C0100207A0100207A0000207B0100207A
:1028F00001F40072B2F5007F00D100BFCA4302802C
:10290000704721B1828942F40052828104E08289B9
:102910004DF6FF731A408281704702460020B1F5E0
:10292000007F00D100BF13880B400BB1012000E0F5
:102930000020704770B502460024002300250020C7
:1029400040F66A16B14200D100BFC1F3421501F052
:102950001F03012606FA03F3012D02D196893340A5
:1029600006E0022D02D1168A334001E0968A3340F8
:102970000C12012606FA04F41688344013B10CB187
:10298000012000E0002070BDF0B5034600240026C1
:102990000025002040F66A17B94200D100BF184652
:1029A000C1F3421401F01F06012707FA06F5012CB6
:1029B00001D10C3004E0022C01D1103000E01430C1
:1029C0001AB107682F43076002E00768AF4307604A
:1029D000F0BD00002DE9F04786B005460E46002404
:1029E000A24600BFA1460027B08900B100BF2F4614
:1029F0002C8A4CF6FF700440F08804432C82AC898A
:102A00004EF6F3100440B0883189084371890843B9
:102A10000443AC81AC8A4FF6FF400440B0890443C4
:102A2000AC8201A8FFF766F91F48874202D1DDF8A2
:102A300010A001E0DDF80CA0A88900F4004040B12E
:102A40000AEBCA0000EB0A1031684900B0FBF1F84C
:102A500007E00AEBCA0000EB0A1031688900B0FBFE
:102A6000F1F86420B8FBF0F004012009642101FBB7
:102A70001089A88900F4004040B1322000EBC90061
:102A8000B0FBF1F000F00700044308E0322000EB57
:102A900009106421B0FBF1F000F00F0004432C8119
:102AA00006B0BDE8F0870000003801400146888884
:102AB000C0F308007047C1F308028280704700002D
:102AC00008B501211D20FFF705F98020ADF80000B1
:102AD00028208DF8030003208DF802006946134872
:102AE000FEF7B7FA80211148FEF793FB4FF46070B0
:102AF000ADF8000010208DF8030003208DF80200CF
:102B000069460B48FEF7A5FA80210948FEF781FBCC
:102B10004FF480710648FEF77CFB4FF400710448C7
:102B2000FEF777FBFFF7FEFB08BD00000008014041
:102B30000010014070B504460025002011490860CE
:102B4000084611490860A1B21048FEF764FB142042
:102B500000F0BEFE00210E48FFF727FD01210C48C2
:102B6000FFF773FCA1B20948FEF753FB00E06D1CB0
:102B70000848854203D2034800680028F7D001487E
:102B8000006870BD2C0000202800002000100140CB
:102B900000040040FFFF080000BFFEE710B53EE064
:102BA00023480378234822490978445C1A460146A1
:102BB000581C085C2B2804D030280FD04F2822D175
:102BC0001DE000BF1046511CCAB21A49085C3A28E1
:102BD000F8D12146104603F04FF914E01549181DAD
:102BE000085C4F2802D10120134908701149181DB3
:102BF000085C4C2802D100200F49087003E0012036
:102C00000E49087000BF00BF094804701A4603E06F
:102C100008488254501CC2B2A242F9D100BF0548F4
:102C200003490978405C024909788842B8D110BD4F
:102C30007A0100207A0000207E0100207D01002022
:102C400010B5FFF7C1F800202749087012E041F6DF
:102C5000907226A129A000F06FF8002405E00A2058
:102C600000F018FEFFF79AFF641C1F48007808B9AF
:102C7000642CF4DB1C4800780028E8D0FFF7A4F8A7
:102C80000020194908700FE023A000F055F8002437
:102C900005E00A2000F0FEFDFFF780FF641C1248EB
:102CA000007808B9322CF4DB0F4800780028EBD00C
:102CB000FFF78AF800200C4908700FE01AA000F016
:102CC0003BF8002405E00A2000F0E4FDFFF766FF72
:102CD000641C0548007808B9322CF4DB02480078FF
:102CE0000028EBD010BD00007D01002031302E31D6
:102CF000382E37352E3231370000000041542B4337
:102D0000495053544152543D22544350222C2225C1
:102D100073222C25640D0A0041542B4349504D4F1A
:102D200044453D310D0A000041542B434950534561
:102D30004E440D0A000000000FB4054B10B503A966
:102D4000044A029800F08EF810BC5DF814FB0000F5
:102D5000ED43000898010020490050EAC12018BF47
:102D600004204A0D18BF40F0010040F2FF72B2EBA0
:102D7000515F08BF40F00200012808BF05207047DE
:102D80002DE9F0414F1E00EBC7010446D1E90001D7
:102D900015461E4637F006020DD02A463346FDF78B
:102DA000A2FB7F1E04EBC703D3E90023FDF7F4FA6F
:102DB00037F00602F1D1022F25D0042F13D0062FB1
:102DC00018BFBDE8F0812A463346FDF78CFBD4E9F5
:102DD0000A23FDF7E1FA2A463346FDF784FBD4E9DE
:102DE0000823FDF7D9FA2A463346FDF77CFBD4E9E0
:102DF0000623FDF7D1FA2A463346FDF774FBD4E9E2
:102E00000423FDF7C9FA2A463346FDF76CFBD4E9E3
:102E10000223FDF7C1FA2A463346FDF764FBD4E9E5
:102E20000023BDE8F041FDF7B7BA0122FDF7A0BDD0
:102E3000FDF7B2BA024A00201107FDF799BD000064
:102E400001FDFFFF02E008C8121F08C1002AFAD1E5
:102E500070477047002001E001C1121F002AFBD11A
:102E6000704700002DE9FF4F8DB00F460546002644
:102E700006E025280BD0DDE90F1290476D1C761C6B
:102E800028780028F5D111B03046BDE8F08F002435
:102E9000A246A1460122EC4900E0044315F8013F97
:102EA000203B02FA03F00842F7D128782A2810D0F4
:102EB0006FF02F022878A0F13001092914D80AEB0D
:102EC0008A0102EB410144F0020400EB010A6D1C8F
:102ED000F0E701CF5FEA000A03D544F40054CAF1D9
:102EE000000A44F002046D1C28782E2817D115F82A
:102EF000010F44F004042A280ED06FF02F02287826
:102F0000A0F1300109290AD809EB890102EB41013E
:102F100000EB01096D1CF2E757F8049B6D1C287843
:102F20006C280FD006DC4C2817D068280DD06A28F2
:102F300014D104E0742810D07A280FD10DE044F4A5
:102F400000140AE044F4801401E044F44014697869
:102F5000814202D104F580146D1C6D1C2A786E2A02
:102F60001FD00CDC632A31D004DC002A8BD0582A15
:102F700011D1A3E0642A68D0692A0CD165E0732AD4
:102F80002ED004DC6F2A73D0702A04D19BE0752AFE
:102F90006FD0782A6ED01046DDE90F129047761C6C
:102FA00050E1C4F30250022806D0032809D00428B7
:102FB00001CF09D0066045E101CFF117C0E90061FA
:102FC00040E101CF06803DE106703BE117F8040BBC
:102FD0008DF8000000208DF80100EB46012003E091
:102FE00057F804BB4FF0FF3061074FF0000102D4E7
:102FF0000DE008F10101884649450FDA8045F8DB0C
:103000001BF808100029F4D108E008F101018846F6
:103010008142FADB1BF808100029F6D1DDE90F2305
:10302000AAEB08008146214600F036F9304400EB57
:10303000080604E0DDE90F121BF8010B9047B8F118
:103040000108F7D221464846F7E00A21C4F30253AB
:103050004FF0000B0891022B04D001CFC117032BB6
:1030600009D00AE0FF1D27F00707F7E8020108E092
:1030700032E01FE020E000B2C117042B01D140B2C2
:10308000C117031E71F1000307DA4FF0000CD0EBFB
:103090000C006CEB01012D2302E0230504D52B234A
:1030A0008DF82430012303E0E30701D02023F7E764
:1030B000984658E00A2110E010210EE010204FF051
:1030C000000B08900CE010214FF0000B44F00404BA
:1030D0004FF00809089103E008214FF0000B089118
:1030E000C4F30253022B04D001CF0021032B06D0DE
:1030F00006E0FF1D27F00707F7E8020103E080B2B2
:10310000042B00D1C0B24FF0000823072BD5702A42
:1031100007D0DDF820C08CF0100C5CEA0B0C05D059
:103120000EE040238DF82430012308E050EA01032B
:1031300006D030238DF824308DF8252002239846C0
:10314000DDF820C08CF0080C5CEA0B0C0BD150EAC7
:10315000010301D1630706D530238DF824304FF0E9
:103160000108A9F10109582A04D038A20B9208AA33
:103170000A920BE03AA2F9E75B46089AFDF712FBC8
:103180000B9B9B5C0A9A521E0A92137050EA010232
:10319000F2D10A98ADEB000000F1200B600702D5D8
:1031A00024F4803401E04FF00109D94502DDA9EB98
:1031B0000B0000E0002000EB0B0141440890AAEB5B
:1031C000010AE00306D4DDE90F232146504600F052
:1031D00063F806444FF0000908E009A911F8090056
:1031E000DDE90F12904709F10109761CC145F4DBB6
:1031F000E0030CD5DDE90F232146504600F04CF8E2
:10320000064404E0DDE90F1230209047761C08994F
:10321000481E08900029F5DC08E00A980A99007811
:10322000491C0A91DDE90F129047761CBBF10001A1
:10323000ABF1010BF1DC21465046DDE90F2300F034
:1032400019F806446D1C1BE60928010030313233A1
:1032500034353637383961626364656600000000D2
:1032600030313233343536373839414243444546BC
:10327000000000002DE9F041044600251E461746D7
:10328000880404D405E039462020B0476D1C641E34
:10329000F9D52846BDE8F0812DE9F0410446002526
:1032A0001E469046C80301D5302700E02027880439
:1032B00004D505E041463846B0476D1C641EF9D57B
:1032C0002846BDE8F08100002DE9FE4F06460F4676
:1032D0000025684601F07EF9002442E056F82400FB
:1032E00057F82410A0EB010ABAF1000F01DB514698
:1032F00001E0CAF100010846FDF7D6F983464FF018
:103300008F41FDF70BF880465DF824000021FDF7A2
:1033100035FA16D05DF824104046FCF7FFFF8246D0
:103320004FF07E51FCF7C2FF814629F0004A0F485A
:10333000416A5046FDF72CFA12D20120A040054305
:103340000EE00A48C1694046FDF718FA05D3074860
:10335000016A4046FDF71CFA02D20120A040054355
:10336000641C032CBADB2846BDE8FE8FA464000869
:1033700010B50446092C0ED00B2C09D00C2C04D00F
:103380000E2C0BD102F079FD08E002F090FD05E073
:1033900001F03AFC02E001F03FFC00BF00BF10BDAD
:1033A0002DE9F84F04460D4621F000400091734985
:1033B000814211DC7249884201DC06D12CB12046E1
:1033C0002946BDE8F84FFFF730BD6E48002DCCBF51
:1033D0006D496E49BDE8F88F6D49814211DD6D4937
:1033E0008142D8BF4FF0FF366DDD20462946FFF7FA
:1033F000B3FC042808BFFFF71DFD20462946BDE8A1
:10340000F88F6549654F25F00045814233DD6449F9
:10341000814219DD002632464FF08043204629467E
:10342000FCF7BAFF80468A46012220462946FDF76E
:103430009FFA00223B46FDF750F842465346FDF7FF
:10344000C4F804460D463EE001260022BA463B463B
:1034500020462946FCF7A0FF80460F46002253462F
:1034600020462946FDF739F842463B46FDF7ADF8C0
:1034700004460D4627E04B4981421BDDDFF828A1B9
:1034800002260022534620462946FDF72CF800224A
:103490003B46FCF781FF80460F46002253462046FC
:1034A0002946FDF71AF842463B46FDF78EF80446DA
:1034B0000D4608E0032622462B4600203B49FDF737
:1034C00084F804460D4622462B4610461946FDF761
:1034D0000AF88B46824602460B46FDF704F807467B
:1034E0000246334888460B4606217844FFF748FCDD
:1034F00052465B46FCF7F7FF82462E488B463A461B
:10350000434605217844FFF73BFC3A464346FCF727
:10351000EAFF02460B46002E504659460CDAFCF7ED
:103520003BFF22462B46FCF7DEFF01B022462B462E
:10353000BDE8F04FFCF7D4BFFCF72EFF22462B4628
:10354000FCF7D1FF1C4A7A4402EBC603D3E90023FF
:10355000FCF7C3FF22462B46FCF7BFFF174A7A440D
:1035600002EBC603D3E90023FCF7BAFF009A002A56
:10357000B8BF81F00041BDE8F88F000000001044A2
:103580000000F07F182D4454FB21F93FFB21F9BFC7
:103590000000DC3F0000203E0000F33F0000F03F51
:1035A0000000E63F008003400000F83F0000F0BF4D
:1035B000423C0000003C00009E3B0000663B0000D7
:1035C0002DE9F04D9446CCF1000423F000464CEA7E
:1035D0000404524F46EAD4749A46884621F00042C9
:1035E000BC4206D8454240EA050442EAD474BC42D3
:1035F00004D9BDE8F04D6246FFF71ABCAAF1405568
:10360000A5F17F6555EA0C040BD0022404EAAA74E4
:10361000434DDFF810E144EAD87452EA000B04D0BD
:103620000CE0BDE8F04DFFF7BBBE002C14BF012C31
:10363000BDE8F08D022C30D0032C32D056EA0C0BB2
:103640000AD0BE4220D1BA4209D126F0804622F0EB
:1036500080423346114617E000291ADB25E0DFF8E7
:10366000C8B0FB44002C04BFDBE90001BDE8F08DCD
:10367000012C02BFDBE9000181F00041BDE8F08DC3
:10368000022C0AD0032C0CD0BA4212D1B8F1000F90
:103690000BDA23482549BDE8F08D28462449BDE8CA
:1036A000F08D28467146BDE8F08D1D482149BDE8E2
:1036B000F08D921B12153C2AC4BF19481D490EDC1F
:1036C000BAF1000FBEBF12F13C0F0020014606DB2D
:1036D0006246FCF77AFF21F00041FFF761FE002C03
:1036E00008BFBDE8F08D012C04BF81F00041BDE8AA
:1036F000F08D114A114B022C07D0FCF7EEFE2A4642
:10370000BDE8F04D0A4BFCF7E8BEFCF7E6FE2A46A2
:10371000BDE8F04D064BFCF7E3BE00000000F07F73
:10372000182D4454FB2109C0FA3A0000FB21F9BFCF
:10373000FB210940FB21F93F075C143326A6A13C7D
:1037400010B50446201F0C282BD2DFE800F006122B
:103750000C182A2A2A2A2A1E2A241E221146002050
:1037600002F020FD20E01E221146012002F01AFD89
:103770001AE050221146032002F014FD14E05022FA
:103780001146022002F00EFD0EE028221146032011
:1037900002F008FD08E028221146022002F002FD96
:1037A00002E002F0F5FD00BF00BF10BD002004E004
:1037B0000021034A1154411CC8B20928F8DB7047A4
:1037C0009C01002008B501214020FEF783FA20204B
:1037D000ADF8000010208DF8030003208DF80200E2
:1037E00069460248FDF735FC08BD0000001801409D
:1037F0002DE9F0410446E07800F0C006E07800F0E2
:103800003F05607800F0010098B1EF102846E917F5
:1038100005EB5171C910A5EBC101491C01F0FF086E
:103820000B48006820B10A48414602683846904774
:1038300000BF607800F0080030B10548406818B15A
:10384000B011034A516888470020BDE8F0810000AC
:10385000A80100204FF0E021096921F004014FF098
:10386000E0221161C21700EB5272C2F3C702074B8C
:103870001A701946097801EB4102C2EBC1114FF6EB
:10388000FF7202EAC101024A118070471A0000204B
:103890001C00002001460D4A12884A434FF0E023E5
:1038A0005A6100229A6101221A6100BF4FF0E022A2
:1038B000106900F001021AB100F48032002AF5D03C
:1038C00000224FF0E0231A619A6170471C0000202B
:1038D00001460D4A12784A434FF0E0235A61002214
:1038E0009A6101221A6100BF4FF0E022106900F0D6
:1038F00001021AB100F48032002AF5D000224FF004
:10390000E0231A619A6170471A00002038B5044616
:1039100064B120208DF8000028208DF801003020AF
:103920008DF8020038208DF8030004E0A322042162
:103930006846FCF74AFC6A46042140F69E2002F0E5
:103940005BFA01F045FE38BD3EB5044602208DF815
:103950000000CA208DF80100E3208DF80200092044
:103960008DF803006A460421682002F045FAA3207E
:103970008DF8000004F0400048B1C0208DF801002F
:10398000C8208DF80200C2208DF8030006E0A320B5
:103990008DF801008DF802008DF8030004F4C0706A
:1039A00048B1C4208DF80400CC208DF80500C62055
:1039B0008DF8060006E0A3208DF804008DF80500C0
:1039C0008DF80600A3208DF807008DF808008DF80B
:1039D00009006A460A2140F6A72002F00DFA04F019
:1039E000030018B120208DF8000002E0D8208DF8E7
:1039F00000006A46012140F6B62002F0FDF904F00D
:103A0000200018B1012000F0ADF802E0002000F025
:103A1000A9F804F4C07008B304F4807060B1B22057
:103A20008DF800008B208DF80100B6208DF8020083
:103A30009B208DF803000BE0B0208DF80000802063
:103A40008DF80100B4208DF8020090208DF803005D
:103A50006A46042140F6A22002F0CEF904F00100EB
:103A600020B3F8208DF800006A4601214FF40B6066
:103A700002F0C2F9FA21072000F094FB072000F0C1
:103A80005BFB012000F07BFB642000F05BFC4FF44B
:103A9000FA7000F06AFCC821304800F00BFB2820C7
:103AA00000F024FB0A2000F034FB08E0D8208DF859
:103AB00000006A4601214FF40B6002F09DF904F00A
:103AC000020018B1D9208DF8000002E0D8208DF84E
:103AD00000006A46012140F23D7002F08DF904F0C9
:103AE000040018B1012000F069F802E0002000F0A5
:103AF00065F804F0100018B10120FFF707FF02E09D
:103B00000020FFF703FF44F008001549488101F049
:103B10005FFD00201249887304F0400018B1084688
:103B2000807B801D887304F4C07020B10C48807BBA
:103B3000801D0B49887304F0140020B10848807B75
:103B400010300749887304F0030020B10448807BDB
:103B5000001D0349887300203EBD000009E3CA022E
:103B6000A80100203EB504466CB10EA1D1E90020A9
:103B70008968CDE9002002916A4609214FF49760D7
:103B800002F03AF93EBD0AA2D2E900109268CDE9EE
:103B9000010200916A4609214FF4976002F02CF966
:103BA000F0E70000B8AAB38DB4980D355D000000B1
:103BB000B8AAAAAAB088C3C5C700000038B5044691
:103BC00064B1C0208DF80000C2208DF80100C4202F
:103BD0008DF80200C6208DF8030004E08B2204213A
:103BE0006846FCF7F2FA6A46042140F6982002F093
:103BF00003F901F0EDFC38BD10B5C8234FF4806225
:103C0000024940F6F63001F077FB10BDCC640008A5
:103C10002DE9F04F8DB00746884615469946DDE9F7
:103C2000166B0024002030806B49887B5A4605A91A
:103C300001F02EFC18B1601E0DB0BDE8F08F664893
:103C4000807A00F01400002867D09DF81400000668
:103C50009DF8151040EA01409DF8161040EA012039
:103C60009DF81710084328609DF8180000069DF87D
:103C7000191040EA01409DF81A1040EA01209DF811
:103C80001B10084368609DF81C0000069DF81D107D
:103C900040EA01409DF81E1040EA01209DF81F10E7
:103CA0000843A8609DF8200000069DF8211040EA16
:103CB00001409DF8221040EA01209DF8231008439E
:103CC000E86004F11000C4B228680014019068682C
:103CD00000140290A86800140390E868001404908F
:103CE00001984043029901FB0100039901FB010087
:103CF000049901FB010ABAF1706F02DBBAF1885F27
:103D000005DD01F065FC00203080401E94E7B6F927
:103D1000000040F48070308000BF2F48807A00F0AF
:103D2000400020B305A9601C085C095D40EA012041
:103D300000B2A8F8000005A9E01C095C05AAA01CB7
:103D4000105C41EA002000B2A8F8020005A9601D3D
:103D5000095C201D105C41EA002000B2A8F80400B4
:103D6000A01DC4B2B6F9000040F0080030801A4827
:103D7000408900F4C07008B305A9601C085C095DA7
:103D800040EA012000B2388005A9E01C095C05AAC0
:103D9000A01C105C41EA002000B2788005A9601DDB
:103DA000095C201D105C41EA002000B2B880A01D13
:103DB000C4B2B6F9000040F0700030800648807A46
:103DC00000F0030018B105A90819FFF711FD4846D6
:103DD00001F060F800202FE7A801002030B585B081
:103DE000044616A207CA02AB07C3C82C03DD4FF076
:103DF000FF3005B030BDC82090FBF4F0401E85B206
:103E0000280A8DF80000E8B28DF801006A46022108
:103E100040F2162001F0F0FF10B14FF0FF30E8E75C
:103E200002AA0C2140F6C12001F0E6FF10B14FF0CC
:103E3000FF30DEE7044884810020DAE7FEF2ABC4FD
:103E4000AAF1DFDFBBAFDFDFA80100201FB504460A
:103E50004848007A00F0030054F8200001904548DB
:103E6000007A00F0040010B10198404201904148EE
:103E7000007AC0F3C10054F8200002903D48007A57
:103E800000F0200010B10298404202903948007AB8
:103E9000C0F3811054F8200003903648008900F4E4
:103EA000807010B10398404203903349019880FB21
:103EB0000101800F40EA810001902F49029880FBA8
:103EC0000110820042EA917002902B49039880FB16
:103ED0000110820042EA917003900198000E8DF863
:103EE00000000198000C8DF801000198000A8DF87F
:103EF00002000198C0B28DF803006A4604214FF415
:103F0000747001F079FF18B14FF0FF3004B010BDAC
:103F10000298000E8DF800000298000C8DF8010048
:103F20000298000A8DF802000298C0B28DF80300D2
:103F30006A4604214FF4757001F05EFF10B14FF036
:103F4000FF30E3E70398000E8DF800000398000CA3
:103F50008DF801000398000A8DF802000398C0B2A2
:103F60008DF803006A4604214FF4767001F044FF97
:103F7000CCE70000A801002009E3CA0210B586B012
:103F8000044647A00068039046A00068029046A03F
:103F90000068019045A00068009004F0030003A9A8
:103FA000085C8DF8140003A8C4F3C101405C8DF8CF
:103FB000150003A8C4F38111405C8DF8160004F0CD
:103FC000030002A9085C8DF8100002A8C4F3C10127
:103FD000405C8DF8110002A8C4F38111405C8DF89B
:103FE000120005AA032140F2264001F005FF18B196
:103FF0004FF0FF3006B010BD04AA032140F22A4062
:1040000001F0FAFE10B14FF0FF30F3E70198059090
:104010000098049004F0040058B19DF8140040F09A
:1040200001008DF814009DF8100040F001008DF89B
:10403000100004F0200058B19DF8150040F0010078
:104040008DF815009DF8110040F001008DF8110069
:1040500004F4807058B19DF8160040F001008DF80E
:1040600016009DF8120040F001008DF8120005AA1C
:1040700003214FF4886001F0BFFE10B14FF0FF3014
:10408000B8E704AA032140F2314001F0B5FE10B1B7
:104090004FF0FF30AEE7064804810020AAE7000099
:1040A0004CCD6C000CC92C003656760026466600B6
:1040B000A8010020F8B505460E464FF47A7095FB2E
:1040C000F0F000FB06F4200E8DF80000200C8DF8B7
:1040D0000100200A8DF80200E0B28DF803006A4664
:1040E00004214FF4AE7001F087FEF8BD38B50446E8
:1040F000052094FBF0F084B220128DF80000E0B2AD
:104100008DF801006A4602214FF4AD7001F074FE93
:1041100038BD38B50446052094FBF0F084B2201277
:104120008DF80000E0B28DF801006A4602214FF4DC
:10413000AC7001F061FE38BD38B504460020009037
:1041400004F0010020B19DF8000040F03000009024
:1041500004F0020020B19DF8000040F00C00009037
:1041600004F0040020B19DF8000040F0030000902E
:104170006A4601214FF4A47001F03EFE38BD38B507
:104180000446012C01DA012402E0042C00DD0424A1
:10419000601EC0B200906A46012140F24F1001F04B
:1041A0002BFE38BD2DE9FC4706460F4606F00700FA
:1041B00010B1B7F5C86F03DD4FF0FF30BDE8FC87E5
:1041C0003846FCF77AFA81465949FCF7A7F8804649
:1041D000684600F0E9FE9DF80000022806D0042899
:1041E00016D0082826D0102848D135E04FF08D4150
:1041F0004046FCF761F88146FCF77DFA84B24D49F0
:104200004046FCF759F88146FCF775FA85B238E06C
:104210004FF08C414046FCF74FF88146FCF76BFAB3
:1042200084B245494046FCF747F88146FCF763FAFB
:1042300085B226E04FF08B414046FCF73DF88146C1
:10424000FCF759FA84B23D494046FCF735F88146FF
:10425000FCF751FA85B214E04FF08A414046FCF772
:104260002BF88146FCF747FA84B235494046FCF703
:1042700023F88146FCF73FFA85B202E04FF0FF30A9
:104280009CE700BF20128DF80400E0B28DF8050015
:1042900028128DF80600E8B28DF8070006F001003C
:1042A000A0B101AA02214FF4EA7001F0A5FD10B1FE
:1042B0004FF0FF3082E70DF1060202214FF49270B9
:1042C00001F09AFD10B14FF0FF3077E706F00200E1
:1042D000A0B101AA02214FF4EC7001F08DFD10B1E4
:1042E0004FF0FF306AE70DF1060202214FF494709F
:1042F00001F082FD10B14FF0FF305FE706F00400DF
:10430000A0B101AA02214FF4EE7001F075FD10B1C9
:104310004FF0FF3052E70DF1060202214FF4967084
:1043200001F06AFD10B14FF0FF3047E7002045E78C
:1043300000004843000040460000C04500004045E2
:104340000000C04438B50446052094FBF0F085B267
:1043500028128DF80000E8B28DF801006A460221AB
:104360004FF4EF7001F048FD38BD38B50446052024
:1043700094FBF0F085B228128DF80000E8B28DF8B9
:1043800001006A4602214FF4ED7001F035FD38BDA1
:1043900010B508211448FCF73CFF1020FFF798FAED
:1043A000012001F087FE432001F084FE002001F08F
:1043B00081FE012001F07EFE002001F07BFE002046
:1043C00001F078FE002001F075FE002001F072FE81
:1043D000002001F06FFE08210348FCF71CFF1020AD
:1043E000FFF776FA10BD00000018014070B50446D2
:1043F0000D46E1B20548FEF75EFB00BF40210348D1
:10440000FEF78BFA0128F9D1204670BD0038014033
:1044100010B54FF480510248FCF7EEFE10BD0000CD
:104420000018014010B5FFF7C1F901F0E7FD0D4894
:10443000C0780C49097940EA01200B490880002422
:104440000BE00A48015D01208840074909880840BF
:1044500008B9204610BD601CC4B2102CF1DB00204E
:10446000F8E700009C010020060000200A00002060
:1044700010B5002400BF06E000BFFFF7D3FF0828F7
:10448000FBD0601CC4B20A2CF6DB06D1FFF7CAFFD2
:10449000082802D10120024908700148007810BDA7
:1044A000040000202DE9F04F97B004464FF07E55F0
:1044B00000264FF000094FF0000A10A811A916AB12
:1044C0000CAACDE9001012A914A8FFF7A1FB18B19E
:1044D000012017B0BDE8F08FBDF8440000F48070F3
:1044E000002870D00C98FCF7DFF807464FF09D418C
:1044F000FBF714FF05460D98FCF7D6F807464FF07A
:104500009D41FBF70BFF06460E98FCF7CDF80746DA
:104510004FF09D41FBF702FF81460F98FCF7C4F86E
:1045200007464FF09D41FBF7F9FE82465146504643
:10453000FBF7C2FE494605904846FBF7BDFE3146F3
:1045400003903046FBF7B8FE294601902846FBF75A
:10455000B3FE00900199FBF757FE02900399FBF719
:10456000A5FE04900599FBF7A1FE8346FCF7D7F85A
:104570000746884651462846FBF79EFE494604906A
:104580003046FBF799FE03900499FBF73DFE4FF090
:1045900080410590FBF790FE8346FCF7C0F83A4651
:1045A0004346CDE90601FFF70BF84FF06632084BA2
:1045B000CDE90801FBF797FFCDE90A01FCF7C2F846
:1045C000206002E0FFE7022083E7002081E700008F
:1045D00066A64C407CB5054628494968087801AB79
:1045E00004220D21FDF7BDF808B107207CBD9DF820
:1045F0000700C0F301109DF8041001F0E00140EA4B
:10460000E1008DF800009DF80700C0F381009DF8DF
:10461000051001F0E00140EAE1008DF801009DF88D
:10462000070000F003009DF8061001F0E00140EAE9
:10463000E1008DF8020000241CE01DF8040018B908
:10464000002045F8240013E00D4845F8240006E05A
:1046500055F824000B49FBF72FFE45F824001DF800
:104660000400401EC0B20DF804000028F0D100BFC5
:10467000601CC4B2032CE0DB0020B7E73000002050
:104680007B14AE3E1D5A843F2DE9F04F87B005469E
:104690000C46914601208DF8100000208DF8110085
:1046A000FE4A1268917CFD4A5268107804AB0222DF
:1046B000FDF7FDF820B14FF0FF3007B0BDE8F08FF7
:1046C000C820FFF7E7F800208DF81000F34A1268C1
:1046D000D17BF24A5268107804AB0122FDF7E7F86B
:1046E00010B14FF0FF30E8E7EC4A12685179EB4A1D
:1046F0005268107804AB0122FDF7D9F810B14FF0E1
:10470000FF30DAE7E54A1268917CE44A5268107893
:1047100004AB0122FDF7CBF810B14FF0FF30CCE72E
:10472000DE4A1268D17DDD4A5268107804AB01225E
:10473000FDF7BDF810B14FF0FF30BEE7D74A126861
:104740001179D64A5268107804AB0122FDF7AFF810
:1047500010B14FF0FF30B0E70C208DF81000CF4AB9
:1047600012681179CD4A5268107804AB0122FDF726
:104770009EF810B14FF0FF309FE70F20FFF78AF847
:10478000C648806A407A8DF81000C44A1268917851
:10479000C24A5268107804AB0122FDF788F810B1C4
:1047A0004FF0FF3089E7BD48806A007A8DF810002D
:1047B000BA4A12685178B94A5268107804AB01229B
:1047C000FDF775F810B14FF0FF3076E7B9F1000F43
:1047D00007D0B248806A807A40F0E0008DF810007F
:1047E00004E0AE48806A807A8DF81000AB4A126807
:1047F0009179AA4A5268107804AB0122FDF757F864
:1048000010B14FF0FF3058E7B9F1000F07D0A348BF
:10481000806AC07A40F0E0008DF8100003E0A04804
:10482000C07A8DF810009D4A1268D1799B4A52686F
:10483000107804AB0122FDF73AF810B14FF0FF30C9
:104840003BE7B9F1000F02D0C820FFF723F8402062
:104850008DF81000914A12681179904A52681078C8
:1048600004AB0122FDF723F810B14FF0FF3024E72D
:1048700078208DF81000894A12685179874A526869
:10488000107804AB0122FDF712F810B14FF0FF30A1
:1048900013E783498889FEF7FDFF00208DF810009B
:1048A0007E4A126851797D4A5268107804AB012221
:1048B000FCF7FDFF10B14FF0FF30FEE6774A1268BB
:1048C000917A764A5268107804AB0222FCF749FFCD
:1048D00010B14FF0FF30F0E69DF811009DF8101078
:1048E00040EA012B0C209BFBF0F0C6B20020A86030
:1048F00068602860A06060602060824665E0674A6A
:104900001268D17A654A5268107804AB0C22FCF721
:1049100028FF10B14FF0FF30CFE69DF811009DF851
:10492000101040EA012000B2ADF808009DF8130015
:104930009DF8121040EA012000B2ADF80A009DF87F
:1049400015009DF8141040EA012000B2ADF80C00EB
:10495000BDF90810206808442060BDF90A1060689D
:1049600008446060BDF90C10A0680844A0609DF880
:1049700017009DF8161040EA012000B2ADF80000C3
:104980009DF819009DF8181040EA012000B2ADF81A
:1049900002009DF81B009DF81A1040EA012000B2A9
:1049A000ADF80400BDF90010286808442860BDF97E
:1049B0000210686808446860BDF90410A8680844DB
:1049C000A8600AF1010000F0FF0AB24597DB344805
:1049D000D0F800C02868C117090441EA1041070453
:1049E000624600233846FBF7BFFB32460023CDE981
:1049F0000201FBF7B9FB28602948D0F800C06868BD
:104A0000C117090441EA10410704624600233846F1
:104A1000FBF7AAFB32460023CDE90201FBF7A4FB1A
:104A200068601F48D0F800C0A868C117090441EAAF
:104A300010410704624600233846FBF795FB3246D7
:104A40000023CDE90201FBF78FFBA8601448D0F8E2
:104A500004C02168C817000440EA11480F046246E8
:104A6000002338464146FBF77FFB32460023CDE961
:104A70000201FBF779FB20600948D0F804C06068A8
:104A8000C117090441EA1041070462460023384671
:104A9000FBF76AFB3246002304E0000030000020F0
:104AA000A4640008CDE90201FBF75EFB60601148D9
:104AB000D0F804C0A068C117090441EA10410704F6
:104AC000624600233846FBF74FFB32460023CDE910
:104AD0000201FBF749FBA060A068002804DDA06884
:104AE000A0F58030A06003E0A06800F58030A060F1
:104AF0000020E2E5A46400082DE9FC5F06460F46AD
:104B000000253D494968087801AB03220D21FCF7D7
:104B100028FE10B10720BDE8FC9F9DF8040000F0BE
:104B20001F008DF804009DF8050000F01F008DF8AF
:104B300005009DF8060000F01F008DF80600002417
:104B400056E056F8240057F82410A0EB010BBBF1F7
:104B5000000F01DB594601E0CBF100010846FBF7ED
:104B6000A3FD4FF08F410090FBF7D8FB814601A8D1
:104B7000005D68B321490868FBF79FFD83465946ED
:104B80001F48FBF7CBFB804604E01E494046FBF77D
:104B900093FB804601A8005D401EC0B201A90855E4
:104BA0000028F2D141464846FBF7B8FB83464FF058
:104BB0007E51FBF77BFB82462AF0004B0F48816950
:104BC0005846FBF7E5FD12D20120A04005430EE058
:104BD0000A4801694846FBF7D1FD05D307484169FA
:104BE0004846FBF7D5FD02D20120A0400543641CD6
:104BF000032CA6DB28468EE730000020A4640008C2
:104C000000B04C4554E3853F10B57D2300220321BD
:104C10004020FCF7E5FF10BD10B54FF4877300226C
:104C200003214020FCF7DCFF10BD10B504462046F0
:104C300000F00FF80346E01C00F00BF843EAC00058
:104C400083B2A01D00F005F843EA801083B2184635
:104C500010BD014691F90020002A01DD00201EE070
:104C600091F90020002A01DA042018E091F90120CE
:104C7000002A01DD012012E091F90120002A01DA69
:104C800005200CE091F90220002A01DD022006E057
:104C900091F90220002A01DA062000E0072070477F
:104CA00010B5FFF7BFFB0A280ED1002405E000BFB6
:104CB000FFF7B8FB0A28FBD0641C302CF7DB0B484D
:104CC0000068401C094908600848007800F00100AD
:104CD00028B120210648FCF79EFA012010BD2021B2
:104CE0000348FCF796FA0020F8E7000000000020D7
:104CF000001801404820FEF7ADFDFCF7A7F8FDF7CE
:104D0000EFFCFCF769F8FDF7DBFEFBF7A1FEFCF713
:104D100079F8FDF713FDFCF7FDFD6420FEF7BAFD01
:104D2000FDF78EFF6420FEF7B5FD47A0FEF704F8FF
:104D3000FCF79AFC48A0FDF7FFFF00BF00F0E4F885
:104D40000028FBD148A0FDF7F7FF01F096F80024FA
:104D500078E0FFF7A5FF10BBFFF764FB0546FEF701
:104D6000EFFCFFF75FFB0546FEF702FBFFF780FB5A
:104D700041490870FFF756FB08280ED1FBF778FF72
:104D80008020FDF793FC054629463CA0FDF7D4FFA3
:104D900000BFFFF747FB0828FBD0002452E0FFF7D5
:104DA0007FFF00284ED0002C4CD101240025142276
:104DB0001146002001F0F6F99620FEF76BFD00BFCA
:104DC000FFF726FB0028FBD0A81C5A22114601F051
:104DD000E9F9D5B1012D31D12A492B480068FBF7FB
:104DE00013FA2A49086000BF2948FFF75BFB002837
:104DF000FAD102E02648FFF755FB24480168244811
:104E00000068FBF7C5FCF5D318E01E491E48006892
:104E1000FBF74CFA1D49086000BF1D48FFF742FB35
:104E20000028FAD102E01A48FFF73CFB1748016856
:104E300017480068FBF7A2FCF5D300BF00BF01F0E4
:104E4000A7FA00BF85E700000A54435020436F6E65
:104E50006E65637465640A004D505520496E69742F
:104E6000204F4B0A00000000444D5020496E6974E9
:104E7000204F4B0A00000000800100203A3A2575BF
:104E80000A0000000000E0406C00002070000020DC
:104E9000680000207047000070B50446002624F02A
:104EA0000104184890F8240008B1002070BD15488E
:104EB000807A10B94FF0FF30F8E71248057C807A0D
:104EC0002040104908740846007CA04202D04FF0F0
:104ED000FF3600E0002614B90A48007D18B1012011
:104EE00001F0ECF902E0002001F0E8F93CB100F03B
:104EF0006FFB20B1034805744FF0FF30D6E7304612
:104F0000D4E700003000002070B50024FCF792FACE
:104F100000F0FAF8002840D1782000F005FFC4B274
:104F20000CB1012070BD7820FFF7B6FFC4B20CB100
:104F30000220F7E7642000F0A9FEC4B20CB1032000
:104F4000F0E7FEF759FEC4B20CB10420EAE71548B9
:104F5000FFF76BFE0546FFF711F8C4B20CB1052050
:104F6000E0E740F27310FEF7EFFCC4B20CB106208C
:104F7000D8E76420FEF732FFC4B20CB10720D1E7B6
:104F800000F0D8FF04460CB10820CBE7012000F068
:104F900079FDC4B21CB10920C4E70A20C2E7002091
:104FA000C0E700005C00002001461148407A30B1A3
:104FB000012807D0022808D003280CD108E00220DD
:104FC00008700BE00420087008E00820087005E075
:104FD0001020087002E04FF0FF30704700BF044817
:104FE000C07C18B108784006000E08700020F4E775
:104FF0003000002001460248007C08700020704705
:105000003000002001460F48007A30B1012807D057
:10501000022809D003280FD10AE0FA2008800EE008
:105020004FF4FA7008800AE04FF47A70088006E0C6
:105030004FF4FA60088002E00020088000BF00BF43
:10504000002070473000002001460E48007A30B141
:10505000012807D0022808D003280CD108E00A480C
:1050600008600BE00948086008E00948086005E0AE
:105070000848086002E04FF0FF30704700BF002092
:10508000FBE70000300000200000034300008342E3
:10509000333303423333834101461248C07A082830
:1050A00017D2DFE800F01704070A0D101318BC2010
:1050B000088013E06220088010E02A2008800DE0BC
:1050C000142008800AE00A20088007E005200880F4
:1050D00004E000BF00BF0020088000BF00BF002028
:1050E00070470000300000200146064890F8240078
:1050F00010B14FF0FF3070470248C089088000208F
:10510000F9E70000300000201CB580208DF8000079
:10511000654A1268917C644A526810786B46012295
:10512000FCF7C5FB10B14FF0FF301CBD6420FEF74B
:10513000B1FB00208DF800005B4A1268917C5A4A4E
:10514000526810786B460122FCF7B1FB10B14FF0AA
:10515000FF30EAE7544A1268917D534A526810784A
:105160006B460622FCF7FDFA10B14FF0FF30DCE78A
:105170009DF80500C007400F9DF8031001F00101E4
:1051800040EA41009DF8011001F0010140EA0104EC
:1051900094B1012C03D101214348C17431E0022CA8
:1051A00003D100214048C1742BE021463FA0FDF708
:1051B000C3FD4FF0FF30B8E73B4A1268D1783A4A56
:1051C000526810786B460122FCF7CBFA10B14FF011
:1051D000FF30AAE79DF8000000F00F042CB93D480D
:1051E000FDF7AAFD4FF0FF309FE7042C06D13AA04F
:1051F000FDF7A2FD01212C48C17402E000212A48DC
:10520000C174FF2128488172FF2027490872FF21BD
:1052100025484172C1724FF6FF71C181FF210174AF
:1052200081740121017380F82210002180F823107D
:10523000417501751630016041608160163880F853
:10524000241080F82510C1844FF4FA6000F062FC4D
:1052500010B14FF0FF3068E7022000F02BFB10B1D7
:105260004FF0FF3061E72A2000F0CEFC10B14FF084
:10527000FF305AE7322000F009FD10B14FF0FF3047
:1052800053E70020FFF708FE10B14FF0FF304CE766
:10529000002000F051FB10B14FF0FF3045E7002037
:1052A00000F042FD002040E730000020556E73758D
:1052B00070706F7274656420736F66747761726565
:1052C0002070726F64756374207265762025642E79
:1052D0000A0000006871000848616C662073656E02
:1052E0007369746976697479207061727420666F6D
:1052F000756E642E0A0000002DE9F04385B0054666
:105300000E4690469946294890F8250020B14FF066
:10531000FF3005B0BDE8F08316B94FF0FF30F8E775
:10532000002423E0281B102801DD102000E0281BAA
:1053300087B232193946204600F05EFD10B14FF0B9
:10534000FF30E6E701AA3946204600F001F910B126
:105350004FF0FF30DDE730193A4601A9FAF747FF71
:1053600010B16FF00100D4E7E01984B2AC42D9DB90
:105370004FEA28208DF8000008F0FF008DF80100AA
:105380000A4A1268917E094A526810786B460222D6
:10539000FCF78DFA10B14FF0FF30BAE70121034856
:1053A00080F82510A0F826900020B2E730000020F9
:1053B00038B50446282C02DD4FF0FF3038BDDCB98B
:1053C000002000F0EBFB00208DF8000007208DF896
:1053D00001002E4A1268917C2C4A526810786B4664
:1053E0000222FCF764FA10B14FF0FF30E6E700212B
:1053F000264801750020E1E7012000F0CFFB2020C6
:105400008DF80000012C06D100208DF80100052048
:1054100000F0FAFB17E0052C06DC01208DF80100F6
:10542000052000F0F1FB0EE0142C06DC02208DF8C4
:1054300001000A2000F0E8FB05E003208DF80100E0
:10544000142000F0E1FB9DF80100072101EB801022
:10545000C0B28DF801000D4A1268917C0B4A526867
:1054600010786B460222FCF722FA10B14FF0FF30A1
:10547000A4E708210548817200210173012101750B
:105480000020FFF709FD002098E700003000002011
:10549000F8B504460F4616462C4890F8240010B97B
:1054A0004FF0FF30F8BD2948807A10B94FF0FF3037
:1054B000F8E7264A1268917A244A526810786B46B7
:1054C0000222FCF74EF910B14FF0FF30EAE79DF8E9
:1054D00001009DF8001040EA0125A54203DA0020F2
:1054E0003070401EDEE7194840684088B5EB600F19
:1054F00017DD164A1268517C144A526810786B46C0
:105500000122FCF72EF910B14FF0FF30CAE79DF8E9
:10551000000000F0100020B100F05AF86FF0010018
:10552000C0E7E2B2094B1B68D97A084B5B68187870
:105530003B46FCF716F910B14FF0FF30B2E795FB90
:10554000F4F0401E30700020ACE700003000002076
:10555000F8B504460D46164616B94FF0FF30F8BDB3
:105560001A48807A10B94FF0FF30F8E720128DF812
:105570000000E0B28DF801009DF8010028441349B5
:1055800049684989884202DD4FF0FF30E7E70F4A5A
:105590001268117E0D4A526810786B460222FCF7A1
:1055A00086F910B14FF0FF30D9E7EAB2074B1B681C
:1055B000597D064B5B6818783346FCF7D2F810B17A
:1055C0004FF0FF30CBE70020C9E70000300000209B
:1055D00008B57048807A10B94FF0FF3008BD002040
:1055E00000906C4A1268D17B6A4A526810786B4608
:1055F0000122FCF75CF910B14FF0FF30EEE7654A8D
:1056000012685179634A526810786B460122FCF7A0
:105610004EF910B14FF0FF30E0E75E4A12681179A1
:105620005C4A526810786B460122FCF740F910B1D1
:105630004FF0FF30D2E7574890F82400002853D0AD
:105640000C200090534A12681179524A526810781F
:105650006B460122FCF72BF910B14FF0FF30BDE78C
:105660003220FEF717F9C02000904A48807A00F0F7
:10567000010020B19DF8000040F020000090454A54
:1056800012681179434A526810786B460122FCF780
:105690000EF910B14FF0FF30A0E73E48407C10B14A
:1056A0000220009001E0002000903A4A1268D17B6D
:1056B000384A526810786B460122FCF7F8F810B1AE
:1056C0004FF0FF308AE700200090324A126851798B
:1056D000304A526810786B460122FCF7E8F800283F
:1056E00055D04FF0FF3079E704200090294A126826
:1056F0001179284A526810786B460122FCF7D7F8D6
:1057000010B14FF0FF3069E72248807C20B9214872
:10571000807A00F0010010B94020009001E0602084
:1057200000901C4A126811791A4A526810786B4628
:105730000122FCF7BCF810B14FF0FF304EE73220E9
:10574000FEF7A8F81348407C10B10120009001E05A
:10575000002000900F4A1268D17B0E4A52681078E0
:105760006B460122FCF7A3F810B14FF0FF3035E78C
:10577000084A12685179074A52681078054B10336D
:105780000122FCF794F810B14FF0FF3026E700201B
:1057900024E70000300000202DE9F04F8DB0834653
:1057A0000F4602200C90424890F8240020B10020BF
:1057B00000F068F9012600E0002603A8FFF722FCAC
:1057C00005A8FFF7F1FB01A8FFF766FC02A8FFF7A9
:1057D0008BFC374890F80AA004A8FFF70BFC0024C4
:1057E00007E0002239465846FEF74EFF00B902E0B6
:1057F000641C022CF5DB00BF022C01D1002528E03F
:10580000002407E0012206A909A8FEF73DFF00B920
:1058100002E0641C022CF5DB00BF022C01D1002544
:1058200017E006A93846FDF74FFD00F0FF0809A96B
:105830005846FFF761F900F0FF090025B9F1000FA4
:1058400001D145F00105B8F1000F01D145F0020585
:1058500000BFFF2016490872FF2115484172C1722E
:105860004FF6FF71C181FF21817201740121017323
:10587000BDF80C0000F04EF99DF8140000F01AF885
:10588000BDF8040000F0C0F9BDF8080000F0FEF912
:10589000504600F049FA9DF81000FFF7FDFA16B1E6
:1058A000012000F0EFF828460DB0BDE8F08F0000B1
:1058B0003000002038B504461E48807A10B94FF0F9
:1058C000FF3038BD022C06D0042C07D0082C08D09D
:1058D000102C0CD108E0002000900BE00820009074
:1058E00008E01020009005E01820009002E04FF042
:1058F000FF30E6E700BF0F48407A9DF80010B0EB9C
:10590000E10F01D10020DCE70A4A1268D179094A87
:10591000526810786B460122FBF7C9FF10B14FF0B7
:10592000FF30CEE79DF80000C11002484172002010
:10593000C7E700003000002038B504465048807C9E
:10594000A04201D1002038BD002C46D04C4A12683C
:1059500011794B4A526810786B460122FBF701FF20
:1059600010B14FF0FF30EEE79DF8000020F020006E
:105970000090434A12681179414A526810786B4688
:105980000122FBF794FF10B14FF0FF30DBE703205B
:10599000FDF780FF02200090394890F8220020B1E6
:1059A0009DF8000040F080000090354890F82300FA
:1059B00020B19DF8000040F030000090304A12689D
:1059C000117D2F4A526810786B460122FBF76FFF5A
:1059D000002851D04FF0FF30B5E7294A12681179FD
:1059E000274A526810786B460122FBF7BAFE10B1C5
:1059F0004FF0FF30A7E72248807A00F0010028B17D
:105A00009DF8000040F02000009004E09DF80000A8
:105A100020F0200000901A4A12681179184A526842
:105A200010786B460122FBF742FF10B14FF0FF30B8
:105A300089E70320FDF72EFF114890F8220010B1EE
:105A40008020009001E0002000900D4890F8230095
:105A500020B19DF8000040F030000090084A126824
:105A6000117D074A526810786B460122FBF71FFF31
:105A700010B14FF0FF3066E701488474002062E700
:105A80003000002038B50446214890F82400A04298
:105A900001D1002038BD24B31D4890F8250010B96D
:105AA0004FF0FF30F6E7002000F008FC0020FFF781
:105AB00043FF1749C88C00F0E9F800200090144912
:105AC000496808786B4601222321FBF7F0FE01218B
:105AD0000F4880F82410012000F0F0FBFFF778FD5C
